:100000000C9440010C9471010C9471010C947101D9
:100010000C9471010C9471010C9471010C94710198
:100020000C9471010C9471010C9471010C94710188
:100030000C9471010C9471010C9471010C94710178
:100040000C9471010C9487070C9471010C9471014C
:100050000C9471010C9471010C9471010C943C0787
:100060000C9471010C94E3060C940B060C94710132
:100070000C9471010C9471010C9471010C94710138
:100080000C9471010C9471010C9471010C94710128
:100090000C94B0060C94CC050C9471010C942304C0
:1000A0000C9471010C9471010C9471010C94710108
:1000B0000C9471010C9471010C9471010C947101F8
:1000C0000C9471010C9471010C9471010C947D06D7
:1000D0000C948D050C9471010C944A060C944E05F9
:1000E0000C9471016A096D0960096409A409710918
:1000F00075097B097F09830989098D099109A4097B
:1001000097099B099F090C949F090C9409030C946F
:100110007B090C94EF010C946A090C9483090C94EC
:1001200097090C9464090C9475090C94810C0C9437
:10013000DC030C942F030C94A7020C947F090C94FD
:100140006B020C9496010C94C2010C9489090C94D6
:100150009B090C9471090C941E020C9497010C9449
:1001600021040C946D090C94BA010C9430030C9486
:100170008B020C9460020C94E1020C9491090C9493
:10018000A6010C9460090C9486070C948D090C94BC
:10019000A40900002200250028002B002E003100B9
:1001A000340002010000050108010B0105050505E9
:1001B000070508080808020202020A0A08080404DF
:1001C000040401010101010101010303030303030D
:1001D0000303040707070C0C0C0C0C0C0C0C02029C
:1001E000020206060606060606060B0B0B0B0B0B99
:1001F0000B0B010210202008081020401020408026
:1002000002010201080402010102040810204080DA
:100210008040201008040201800402018040201068
:1002200008040201080402010102040810204080B1
:1002300001020408102040800000090A02080B0C8B
:100240000D0706030401000000000000000000008C
:10025000000000000000000000000000000000009E
:100260000000000011100F0000000000000000005E
:100270000000000000000000000000000000810CF1
:1002800011241FBECFEFD1E2DEBFCDBF00E00CBF17
:1002900012E0A0E0B2E0EEE8F2E200E00BBF02C044
:1002A00007900D92A439B107D9F726E0A4E9B2E08E
:1002B00001C01D92A431B207E1F711E0C0E4D1E022
:1002C00000E006C021970109802FFE010E943D1128
:1002D000CF33D10780E00807A9F70E94B3090C9437
:1002E000A50D0C94000085ED8093BC008091BC00AE
:1002F00084FDFCCF10924E030895613298F4209152
:100300004E03243089F46093C002282FA0EAB2E0A3
:10031000FC018E2F821B861718F481918D93F9CFE3
:1003200080E0089581E0089582E008950895E091C5
:10033000E4028091E302E81730F4F0E0E85FFC4F5C
:10034000808190E008958FEF9FEF08959091E402EF
:100350008091E302981750F4E92FF0E0E85FFC4F3A
:10036000208130E09F5F9093E40202C02FEF3FEFC7
:10037000C90108958091E30290E02091E402821B7C
:1003800091090895CF92DF92EF92FF920F931F93FE
:10039000CF93DF937C01CB018A012091E5022223D8
:1003A00089F0EB016B01C40ED51ECC15DD0569F09B
:1003B0006991D701ED91FC910190F081E02DC70189
:1003C0001995F3CF642F0E947D01C801DF91CF9171
:1003D0001F910F91FF90EF90DF90CF900895CF93F2
:1003E000DF931F92CDB7DEB769832091E502222308
:1003F000D1F020910703203240F021E030E0FC01F1
:100400003383228380E090E015C08091E602E82FDC
:10041000F0E0E951FD4F998190838F5F8093E60270
:100420008093070305C061E0CE0101960E947D0123
:1004300081E090E00F90DF91CF9108950F931F938B
:10044000CF93DF93FC01A685B7858D01005C1F4F1C
:10045000E8018881998101968F739927AD014E5BE0
:100460005F4FEA012881398128173907D1F3E80164
:1004700028813981A20FB31F6C93A685B785A05C34
:10048000BF4F11969C938E93A689B7892C9181E0DA
:1004900090E0078C02C0880F991F0A94E2F7822B24
:1004A0008C9381E081A30488F589E02D80818064AC
:1004B000808381E090E0DF91CF911F910F910895AB
:1004C000FC0181A1882329F0A489B5898C9186FF3C
:1004D000FBCF11A20895FC01A485B585FD01E05C68
:1004E000FF4F208131813296808191812817390711
:1004F00079F080819181A80FB91F8C912081318181
:100500002F5F3F4F2F7333273183208390E008956F
:100510008FEF9FEF0895DC011C96ED91FC911D97E4
:10052000DF01A05CBF4F2D913C91119712968D91E8
:100530009C9111972817390739F08D919C91E80FFC
:10054000F91F808190E008958FEF9FEF0895FC01DF
:1005500024853585F901E05CFF4F808191813296D9
:1005600020813181821B930B8F739927089585ED2C
:1005700095E00E94A7028BE295E00E94A70281E825
:1005800094E00E94A70287ED93E00C94A702FB0180
:10059000E05CFF4F20813181DB01AE5BBF4F4D91AD
:1005A0005C912F5F3F4F2F7333274217530741F062
:1005B00040815181DB01A40FB51F8C9331832083CF
:1005C0000895CF92DF92EF92FF920F931F93CF93F4
:1005D000DF936C01EB017B01E40EF51E00E010E0FF
:1005E000CE15DF0561F06991D601ED91FC91019086
:1005F000F081E02DC6011995080F191FF1CFC80130
:10060000DF91CF911F910F91FF90EF90DF90CF90EE
:10061000089508953FB7F8948091950290919602BD
:10062000A0919702B091980226B5A89B05C02F3FD4
:1006300019F00196A11DB11D3FBFBA2FA92F982F08
:100640008827820F911DA11DB11DBC01CD0142E083
:10065000660F771F881F991F4A95D1F7089508954F
:100660008F929F92AF92BF92CF92DF92EF92FF92C2
:100670000F931F93CF93DF93CDB7DEB762970FB67B
:10068000F894DEBF0FBECDBF8B0124E2DB011D92CB
:100690002A95E9F744E250E060E070E0F801408319
:1006A000518362837383DC0116964D915D916D9148
:1006B0007C911997448355836683778343E050E0A8
:1006C00060E070E040875187628773872FB7F894A6
:1006D00040919C0250919D0260919E0270919F02F8
:1006E0002FBF408B518B628B738BFE0131962CE0B8
:1006F000DF011D922A95E9F7AE01435F5F4F26E0C7
:10070000FA0111922A95E9F76AE170E00E942C083B
:100710006D857E85072E000C880B990B0E94F40FC7
:1007200020E030E040E85DE30E94A9104B015C014D
:100730006F857889072E000C880B990B0E94F40FA7
:1007400020E030E040E85DE30E94A9106B017C01ED
:1007500069897A89072E000C880B990B0E94F40F87
:1007600020E030E040E85DE30E94A910D8015496F3
:100770008D929D92AD92BC925797F801C08ED18E0A
:10078000E28EF38E5C966D937D938D939C935F9731
:1007900081E062960FB6F894DEBF0FBECDBFDF9149
:1007A000CF911F910F91FF90EF90DF90CF90BF906E
:1007B000AF909F908F9008950F931F93CF93DF93E7
:1007C0008C01EB0188E2FB0111928A95E9F74BE07D
:1007D00050E062E472E0CE010E94C90E1B8681E007
:1007E00090E0A0E0B0E08C879D87AE87BF87F801DE
:1007F00086819781A085B185888B998BAA8BBB8BCD
:1008000083E090E0A0E0B0E08C8B9D8BAE8BBF8B43
:100810001CA21DA21EA21FA2188E198E1A8E1B8E3C
:100820001C8E1D8E1E8E1F8E8AE097EDA3E2BCE308
:1008300088A399A3AAA3BBA3DF91CF911F910F9186
:1008400008950C94400E1F920F920FB60F92112430
:100850000BB60F922F933F934F935F936F937F93BA
:100860008F939F93AF93BF93EF93FF938091B900C2
:10087000887F803609F49CC068F5883209F45BC033
:1008800090F4803109F454C038F4882309F4EFC09F
:10089000883009F44DC0EFC0883109F44CC0803273
:1008A00009F45DC0E8C0803409F468C048F48033BE
:1008B00009F455C0883309F0DEC080934C03D1C0E1
:1008C000803509F44FC0883509F45DC0883409F0DB
:1008D000D2C0CFC0883909F4C0C0A8F4883709F461
:1008E00067C038F4883609F463C0803709F460C003
:1008F000C2C0883809F4B1C0803909F45FC08038BB
:1009000009F0B9C05BC0803B09F481C038F4803A7B
:1009100009F466C0883A09F47AC0ADC0803C09F495
:10092000A0C0883C09F49DC0883B09F483C0A3C0E3
:100930008091490310C090914B0380914A0398170E
:1009400070F5E0914B0381E08E0F80934B03F0E054
:10095000E85DFC4F80818093BB0085EC7FC0809375
:100960004C0387C0E0914B0381E08E0F80934B03D3
:100970008091BB00F0E0E85DFC4F808390914B03D9
:1009800080914A0367C0E0914B0381E08E0F809312
:100990004B038091BB00F0E0E85DFC4F80838091C9
:1009A0004D03811166C081E08093480384EA5AC0F8
:1009B00083E080934E031092E202CFCF8091E20257
:1009C000803208F04AC0E091E20281E08E0F80930D
:1009D000E2028091BB00F0E0EE53FD4F8083BDCF7B
:1009E0008091E202803230F4E091E202F0E0EE53D6
:1009F000FD4F10820E9473016091E20270E082EC70
:100A000092E0E0E0F0E019951092E2022AC084E062
:100A100080934E031092C1021092C002E0E0F0E019
:100A200019958091C002811105C081E08093C002B8
:100A30001092A002E091C10281E08E0F8093C1026A
:100A4000F0E0E056FD4F80818093BB009091C102A1
:100A50008091C002981708F480CF85E88093BC008D
:100A60000AC085EC8093BC0010924E0304C0109223
:100A70004C030E947301FF91EF91BF91AF919F9141
:100A80008F917F916F915F914F913F912F910F9037
:100A90000BBE0F900FBE0F901F9018951F920F92D4
:100AA0000FB60F9211240BB60F922F933F938F9393
:100AB0009F93EF93FF9320918F0330919003809148
:100AC0009103909192032817390731F480913101F5
:100AD0008F7D8093310114C0E0919103F0919203D6
:100AE000E15BFC4F208180919103909192030196EC
:100AF0008F739927909392038093910320933601EB
:100B0000FF91EF919F918F913F912F910F900BBE8D
:100B10000F900FBE0F901F9018951F920F920FB657
:100B20000F9211240BB60F922F933F938F939F93A5
:100B3000EF93FF932091390430913A0480913B0464
:100B400090913C042817390731F48091D1008F7DB2
:100B50008093D10014C0E0913B04F0913C04E75035
:100B6000FC4F208180913B0490913C0401968F734F
:100B7000992790933C0480933B042093D600FF91E7
:100B8000EF919F918F913F912F910F900BBE0F90FE
:100B90000FBE0F901F9018951F920F920FB60F92D5
:100BA00011240BB60F922F933F938F939F93EF9344
:100BB000FF932091E3043091E4048091E504909147
:100BC000E6042817390731F48091C9008F7D80939E
:100BD000C90014C0E091E504F091E604ED55FB4F27
:100BE00020818091E5049091E60401968F73992706
:100BF0009093E6048093E5042093CE00FF91EF915B
:100C00009F918F913F912F910F900BBE0F900FBE30
:100C10000F901F9018951F920F920FB60F921124EC
:100C20000BB60F922F933F938F939F93EF93FF9366
:100C300020918D0530918E0580918F0590919005C2
:100C40002817390731F48091C1008F7D8093C1004E
:100C500014C0E0918F05F0919005E35BFA4F20817D
:100C600080918F059091900501968F7399279093AD
:100C7000900580938F052093C600FF91EF919F917F
:100C80008F913F912F910F900BBE0F900FBE0F9041
:100C90001F9018951F920F920FB60F9211240BB64A
:100CA0000F922F933F934F935F936F937F938F9305
:100CB0009F93AF93BF93EF93FF938091300182FD99
:100CC00007C08091360163E973E00E94C70202C049
:100CD00080913601FF91EF91BF91AF919F918F91DC
:100CE0007F916F915F914F913F912F910F900BBE2C
:100CF0000F900FBE0F901F9018951F920F920FB676
:100D00000F9211240BB60F922F933F934F935F9343
:100D10006F937F938F939F93AF93BF93EF93FF93C3
:100D20008091D00082FD07C08091D6006DE374E011
:100D30000E94C70202C08091D600FF91EF91BF913F
:100D4000AF919F918F917F916F915F914F913F9163
:100D50002F910F900BBE0F900FBE0F901F90189504
:100D60001F920F920FB60F9211240BB60F922F9372
:100D70003F934F935F936F937F938F939F93AF9323
:100D8000BF93EF93FF938091C80082FD07C08091CD
:100D9000CE0067EE74E00E94C70202C08091CE00D0
:100DA000FF91EF91BF91AF919F918F917F916F9143
:100DB0005F914F913F912F910F900BBE0F900FBEFF
:100DC0000F901F9018951F920F920FB60F9211243B
:100DD0000BB60F922F933F934F935F936F937F9335
:100DE0008F939F93AF93BF93EF93FF938091C00036
:100DF00082FD07C08091C60061E975E00E94C702CC
:100E000002C08091C600FF91EF91BF91AF919F9179
:100E10008F917F916F915F914F913F912F910F90A3
:100E20000BBE0F900FBE0F901F901895CF92DF92C0
:100E3000EF92FF92CF93DF936B017C010E940A0334
:100E4000EB01C114D104E104F10479F00E940A031A
:100E50006C1B7D0B683E7340A0F381E0C81AD1087B
:100E6000E108F108C851DC4FECCFDF91CF91FF9042
:100E7000EF90DF90CF9008951F920F920FB60F92D0
:100E800011242F933F938F939F93AF93BF938091A0
:100E90009C0290919D02A0919E02B0919F02309180
:100EA000940223E0230F2D3720F40196A11DB11DDC
:100EB00005C026E8230F0296A11DB11D20939402C0
:100EC00080939C0290939D02A0939E02B0939F02F8
:100ED0008091950290919602A0919702B09198020C
:100EE0000196A11DB11D8093950290939602A09347
:100EF0009702B0939802BF91AF919F918F913F91CC
:100F00002F910F900FBE0F901F90189508951F926C
:100F10000F920FB60F9211248F9381E080939B0262
:100F20008F910F900FBE0F901F90189590914E03C8
:100F30009111FCCF91E090934E0390934D032FEFCE
:100F400020934C0310924B03260F20934A03909357
:100F5000490390914903880F892B8093490380911D
:100F60004803813041F410924803809149038093F3
:100F7000BB0085EC01C085EE8093BC0080914E03E0
:100F80008130E1F380914B03861710F460914B039D
:100F9000A8E2B3E0E8E0F3E080E0861721F09D915D
:100FA00091938F5FFACF089530910703313208F0A3
:100FB00047C080914E038111FCCF9091030622E03F
:100FC00020934E0321E020934D032FEF20934C03F9
:100FD00010924B0330934A03E7EEF2E0A8E2B3E04D
:100FE00020E0321721F041914D932F5FFACF1092FC
:100FF000490320914903990F922B909349039091B3
:101000004803913041F41092480390914903909322
:10101000BB0095EC01C095EE9093BC0090914E03FF
:101020009230E1F390914C039F3F79F080914C0313
:10103000803241F080914C03803331F084E005C070
:1010400081E003C082E001C083E01092E6021092CA
:1010500007031092E5020895EF92FF920F931F93FA
:10106000CF93DF938C017A01DC0113968C91139757
:1010700091E09093E502809303061092E6021092AD
:10108000070314968D919C911597DC01ED91FC91CD
:101090000190F081E02D19950E94D40766E0F801D7
:1010A00083810E9496071092E4028093E302E70195
:1010B000F6E0EF0EF11CD80114968D919C911597D6
:1010C000DC01ED91FC910680F781E02D1995899363
:1010D000EC16FD0681F781E0DF91CF911F910F9112
:1010E000FF90EF900895682F85ED95E00C941E0217
:1010F000009769F0FC0101900020E9F73197AF01FA
:10110000481B590BBC0185ED95E00C94E10280E091
:1011100090E008958F929F92AF92BF92EF92FF92CC
:101120000F931F93CF93DF93CDB7DEB7A1970FB681
:10113000F894DEBF0FBECDBF162F042F19A2423088
:1011400008F40AE07E0121E2E20EF11C802E912CCF
:10115000A12CB12C612FA50194010E941B11029FAB
:101160001019112481E0E81AF1081A3014F4105D06
:1011700001C0195CF7011083122F732FCA01232BB2
:10118000242B252B39F7C7010E947808A1960FB6AA
:10119000F894DEBF0FBECDBFDF91CF911F910F91AD
:1011A000FF90EF90BF90AF909F908F9008951F9306
:1011B000CF93DF93162FC7EFD5E09B8121E02093DB
:1011C000E502909303061092E60210920703AC81A9
:1011D000BD81ED91FC9111970190F081E02D682F78
:1011E000CD0119958C819D81DC01ED91FC910190DF
:1011F000F081E02D612F19950E94D40781E0DF91E5
:10120000CF911F910895E7EFF5E082879387682FCC
:101210008DE390E00E94D7086EE170E080E090E0FE
:101220000C941607CF93DF93C7EFD5E08B8191E045
:101230009093E502809303061092E6021092070352
:101240008C819D81DC01ED91FC910190F081E02D7C
:1012500060E019950E94D40761E08B810E94960797
:101260001092E4028093E3028C819D81DC01ED9178
:10127000FC910680F781E02D1995DF91CF910895BB
:1012800090E0FC01E85CFD4F4491FC01EE50FE4F04
:101290002491FC01E455FE4F9491992309F462C016
:1012A000442309F451C050E0FA013197E131F105CE
:1012B00008F04AC08827EE58FF4F8F4F0C943D111D
:1012C000809180008F7703C0809180008F7D809314
:1012D00080003AC084B58F7702C084B58F7D84BD0D
:1012E00033C08091B0008F7703C08091B0008F7DB4
:1012F0008093B00029C0809190008F7707C08091C3
:1013000090008F7D03C080919000877F8093900034
:101310001BC08091A0008F7707C08091A0008F7DB7
:1013200003C08091A000877F8093A0000DC08091B2
:1013300020018F7707C0809120018F7D03C08091AD
:101340002001877F80932001E92FF0E0EE0FFF1F3F
:10135000EE56FE4FA591B4918FB7F894EC91E22B25
:10136000EC938FBF0895CF93DF93CDB7DEB762972D
:101370000FB6F894DEBF0FBECDBF789484B58260FF
:1013800084BD84B5816084BD85B5826085BD85B529
:10139000816085BD80916E00816080936E001092A7
:1013A0008100809181008260809381008091810022
:1013B00081608093810080918000816080938000B3
:1013C0008091B10084608093B1008091B000816011
:1013D0008093B00080919100826080939100809111
:1013E0009100816080939100809190008160809352
:1013F00090008091A10082608093A1008091A10063
:1014000081608093A1008091A00081608093A00002
:10141000809121018260809321018091210181606E
:10142000809321018091200181608093200180912F
:101430007A00846080937A0080917A008260809341
:101440007A0080917A00816080937A0080917A009E
:10145000806880937A001092C100E091E905F091D4
:10146000EA0581E090E09C010090F50502C0220FA2
:10147000331F0A94E2F72083E091E505F091E60539
:101480001082E091E705F091E8052FEC208310929F
:10149000F605E091EB05F091EC0540819C01009090
:1014A000F10502C0220F331F0A94E2F7242B208398
:1014B000E091EB05F091EC0540819C010090F20574
:1014C00002C0220F331F0A94E2F7242B2083E091FD
:1014D000EB05F091EC0540819C010090F30502C002
:1014E000220F331F0A94E2F7242B2083E091EB05AF
:1014F000F091EC0520810090F40502C0880F991F3F
:101500000A94E2F78095822380831092E40210927D
:10151000E3021092E6021092070310924E0381E05C
:1015200080934D031092480384E10E94400985E1B5
:101530000E9440098091B9008E7F8093B90080910C
:10154000B9008D7F8093B90088E48093B80085E46A
:101550008093BC000E941209803A71F480E090E010
:101560000E94030960E28FE390E00E94D7086EE1D9
:1015700070E080E090E00FC068EE73E080E090E003
:101580000E9416070E941209803A41F387E592E013
:101590000E94780884C00E9416070E941209803AAF
:1015A00029F06AE070E080E090E0F5CF62E370E05F
:1015B00080E090E00E94160760E08EE390E00E94D9
:1015C000D7086AE070E080E090E00E94160760E0D3
:1015D00087E090E00E94D70860E08FE390E00E94EF
:1015E000D7086AE070E080E090E00E9416078CE087
:1015F00090E00E94030964E170E080E090E00E94C6
:10160000160768EE73E080E090E00E9416070091F4
:1016100001061091020680E090E00E94030969E152
:1016200070E080E090E00E94160760E087E090E0C4
:101630000E94D70860E88FE390E00E94D7086AE034
:1016400070E080E090E00E941607C8010E94030944
:1016500064E170E080E090E00E94160780916F00E6
:10166000826080936F0083ED90E390938900809374
:101670008800809180008861809380008091810043
:1016800083608093810078949CE0992ECE0101962E
:101690005C018E01035F1F4F26E0822E89C0FFCFC1
:1016A00010929B02F501892D11928A95E9F7F801B4
:1016B000882D11928A95E9F7A80168E070E087EF1C
:1016C00095E00E942C08CF84D888E988FA886D8537
:1016D0007E85072E000C880B990B0E94F40F20E0EA
:1016E00030E048EC52E40E944A0F69837A838B838E
:1016F0009C83B601DD0C880B990B0E94F40F20E04F
:1017000030E048EC52E40E944A0F6D837E838F8361
:101710009887B701FF0C880B990B0E94F40F20E00B
:1017200030E048EC52E40E944A0F69877A878B8741
:101730009C878AE50E947308C980DA80EB80FC8070
:10174000A7019601C701B6010E9416118823A9F1CD
:1017500089E492E00E947808C0909902D0909A02A1
:101760000D2C000CEE08FF08F7FEC2C08DE20E94AF
:10177000730866277727CB016C197D098E099F09AD
:101780004AE00E948A088DE00E9473088AE00E9465
:1017900073088091990290919A0201968B3091057D
:1017A0000CF0AAC090939A02809399020E94B7020B
:1017B00080919B028823D1F373CF26013701E894EF
:1017C00077F82FEF3FEF4FE75FE7C301B2010E94C9
:1017D000161181110DC02FEF3FEF4FE75FE7C301F7
:1017E000B2010E94450F18161CF48DE492E0B2CFAE
:1017F0002FEF3FEF4FE75FE4C701B6010E94A4104F
:1018000018161CF481E592E0A5CF2FEF3FEF4FE7CC
:101810005FECC701B6010E94450F87FDF3CF20E0C2
:1018200030E0A901C701B6010E94450F87FF07C03C
:101830008DE20E947308F7FAF094F7F8F0942AE02A
:1018400037ED43EA5BE3C701B6010E94D90E6B0195
:101850007C010E94C30F2B013C010E94F20F9B01EF
:10186000AC01C701B6010E94D80E6B017C014AE0B1
:10187000C301B2010E948A0885E592E00E947808BF
:1018800083E0782E7A94772009F466CF20E030E068
:1018900040E251E4C701B6010E94A9101B012C01CE
:1018A0000E94BC0F6B01770FEE08FF08F7FE0EC019
:1018B0008DE20E94730888279927DC018C199D0905
:1018C000AE09BF094AE0BC01CD0103C04AE0C7012F
:1018D000B6010E948A08C701B6010E94F40F9B015D
:1018E000AC01C201B1010E94D80E6B017C01CACFCC
:1018F0004AE0C701B60145CF10929A0210929902B0
:1019000055CFEF92FF921F93CF93DF93C4E0D6E0C1
:101910001B821A8288EE93E0A0E0B0E08C839D8366
:10192000AE83BF832AE032E039832883E5EDF5E01A
:101930001382128284839583A683B7834AE152E09F
:101940005183408321E935E0358724872DE435E054
:101950003787268725EC30E0318B208B24EC30E074
:10196000338B228B20EC30E0358B248B21EC30E064
:10197000378B268B22EC30E0318F208F26EC30E045
:10198000338F228F14E0148F73E0758F67E0668FBA
:1019900035E0378F21E020A3EBE2F5E013821282DD
:1019A00084839583A683B783518340830F2EF7EEFC
:1019B000EF2EF4E0FF2EF02DF586E4860F2EF3EAED
:1019C000EF2EF4E0FF2EF02DF786E6860F2EFDECCD
:1019D000EF2EF12CF02DF18AE08A0F2EFCECEF2E89
:1019E000F12CF02DF38AE28A0F2EF8ECEF2EF12C79
:1019F000F02DF58AE48A0F2EF9ECEF2EF12CF02D64
:101A0000F78AE68A0F2EFAECEF2EF12CF02DF18EEC
:101A1000E08E0F2EFEECEF2EF12CF02DF38EE28EE9
:101A2000148F758F668F378F20A3E1E8F4E013825F
:101A3000128284839583A683B783518340830F2EBC
:101A4000FDE3EF2EF4E0FF2EF02DF586E4860F2E59
:101A5000F9EFEF2EF3E0FF2EF02DF786E6860F2E3E
:101A6000F5EDEF2EF12CF02DF18AE08A0F2EF4ED3A
:101A7000EF2EF12CF02DF38AE28A0F2EF0EDEF2EEF
:101A8000F12CF02DF58AE48A0F2EF1EDEF2EF12CDA
:101A9000F02DF78AE68A0F2EF2EDEF2EF12CF02DC5
:101AA000F18EE08E0F2EF6EDEF2EF12CF02DF38E51
:101AB000E28E148F758F668F378F20A3E7EDF3E0EA
:101AC0001382128284839583A683B78351834083D4
:101AD00083E993E0958784878FE493E097878687EF
:101AE00085E391E0918B808B84E391E0938B828BF3
:101AF00080E391E0958B848B81E391E0978B868BDB
:101B000082E391E0918F808F86E391E0938F828FC3
:101B1000148F758F668F378F20A3E7EFF5E08AE289
:101B200092E09183808387E390E0A0E0B0E0868339
:101B30009783A087B18788E28383D583C483DF91AD
:101B4000CF911F91FF90EF900895F8940C94451158
:101B50000F931F93CF93DF938230910510F482E0AF
:101B600090E0E0911206F091130620E030E0A0E052
:101B7000B0E0309719F140815181028113814817FB
:101B80005907C8F08417950769F4109731F0129639
:101B90000C93129713961C9327C000931206109370
:101BA000130622C02115310519F04217530718F406
:101BB0009A01BD01EF01DF01F801DBCF21153105ED
:101BC000F9F0281B390B2430310580F48A819B8180
:101BD0006115710521F0FB019383828304C090930A
:101BE000130680931206FE01329644C0FE01E20FF6
:101BF000F31F8193919322503109398328833AC08E
:101C00002091100630911106232B41F420910202FD
:101C100030910302309311062093100620910002A8
:101C2000309101022115310541F42DB73EB74091A5
:101C3000040250910502241B350BE0911006F0912F
:101C40001106E217F307A0F42E1B3F0B28173907E4
:101C500078F0AC014E5F5F4F2417350748F04E0F08
:101C60005F1F50931106409310068193919302C019
:101C7000E0E0F0E0CF01DF91CF911F910F91089547
:101C8000CF93DF93009709F481C0FC013297138250
:101C90001282A0911206B0911306109781F4208150
:101CA0003181820F931F2091100630911106281761
:101CB000390751F5F0931106E093100667C0ED0166
:101CC00020E030E0CE17DF0740F44A815B819E01BF
:101CD00041155105F1F0EA01F5CFD383C28340816C
:101CE0005181840F951FC817D90759F488819981AC
:101CF000840F951F0296918380838A819B819383B1
:101D000082832115310529F4F0931306E09312061E
:101D10003DC0E901FB83EA8349915991C40FD51F66
:101D2000EC17FD0761F480819181840F951F029665
:101D3000E90199838883828193819B838A83E0E090
:101D4000F0E012968D919C911397009719F0FD0188
:101D5000DC01F7CF8D919C9111979D012E5F3F4F34
:101D6000820F931F20911006309111062817390712
:101D700069F4309729F4109213061092120602C0EB
:101D800013821282B0931106A0931006DF91CF91B7
:101D90000895FB01DC014150504048F001900D9244
:101DA0000020C9F701C01D9241505040E0F708954E
:101DB0005058BB27AA270E94F00E0C946A100E946C
:101DC0005C1038F00E94631020F039F49F3F19F442
:101DD00026F40C9459100EF4E095E7FB0C94531084
:101DE000E92F0E947B1058F3BA1762077307840724
:101DF000950720F079F4A6F50C949D100EF4E0956B
:101E00000B2EBA2FA02D0B01B90190010C01CA01B4
:101E1000A0011124FF27591B99F0593F50F4503E5F
:101E200068F11A16F040A22F232F342F4427585F51
:101E3000F3CF469537952795A795F0405395C9F769
:101E40007EF41F16BA0B620B730B840BBAF0915021
:101E5000A1F0FF0FBB1F661F771F881FC2F70EC0C0
:101E6000BA0F621F731F841F48F487957795679593
:101E7000B795F7959E3F08F0B0CF9395880F08F07F
:101E80009927EE0F9795879508950E942F1008F4D3
:101E900081E008950E945E0F0C946A100E94631006
:101EA00058F00E945C1040F029F45F3F29F00C9438
:101EB000531051110C949E100C9459100E947B10D9
:101EC00068F39923B1F3552391F3951B550BBB2769
:101ED000AA2762177307840738F09F5F5F4F220FAE
:101EE000331F441FAA1FA9F335D00E2E3AF0E0E8A5
:101EF00032D091505040E695001CCAF72BD0FE2FEF
:101F000029D0660F771F881FBB1F26173707480782
:101F1000AB07B0E809F0BB0B802DBF01FF2793583A
:101F20005F4F3AF09E3F510578F00C9453100C949B
:101F30009E105F3FE4F3983ED4F3869577956795BE
:101F4000B795F7959F5FC9F7880F911D969587956F
:101F500097F90895E1E0660F771F881FBB1F62178E
:101F600073078407BA0720F0621B730B840BBA0B4C
:101F7000EE1F88F7E09508950E94C30F6894B11191
:101F80000C949E1008950E94831088F09F5798F03B
:101F9000B92F9927B751B0F0E1F0660F771F881F6E
:101FA000991F1AF0BA95C9F714C0B13091F00E9488
:101FB0009D10B1E008950C949D10672F782F88270D
:101FC000B85F39F0B93FCCF3869577956795B395AF
:101FD000D9F73EF490958095709561957F4F8F4F1E
:101FE0009F4F0895E89409C097FB3EF49095809523
:101FF000709561957F4F8F4F9F4F9923A9F0F92FCF
:1020000096E9BB279395F695879577956795B7954C
:10201000F111F8CFFAF4BB0F11F460FF1BC06F5F32
:102020007F4F8F4F9F4F16C0882311F096E911C044
:10203000772321F09EE8872F762F05C0662371F065
:1020400096E8862F70E060E02AF09A95660F771F79
:10205000881FDAF7880F9695879597F90895990F55
:102060000008550FAA0BE0E8FEEF16161706E80762
:10207000F907C0F012161306E407F50798F0621B83
:10208000730B840B950B39F40A2661F0232B242B58
:10209000252B21F408950A2609F4A140A6958FEF77
:1020A000811D811D089597F99F6780E870E060E0C9
:1020B00008959FEF80EC089500240A9416161706E1
:1020C00018060906089500240A9412161306140629
:1020D00005060895092E0394000C11F4882352F08C
:1020E000BB0F40F4BF2B11F460FF04C06F5F7F4F44
:1020F0008F4F9F4F089557FD9058440F551F59F02B
:102100005F3F71F04795880F97FB991F61F09F3FE4
:1021100079F087950895121613061406551FF2CF0D
:102120004695F1DF08C0161617061806991FF1CF5D
:1021300086957105610508940895E894BB27662784
:102140007727CB0197F908950E942F1008F48FEF9D
:1021500008950E94BC100C946A100E945C1038F024
:102160000E94631020F0952311F00C9453100C94EE
:10217000591011240C949E100E947B1070F3959FAF
:10218000C1F3950F50E0551F629FF001729FBB276E
:10219000F00DB11D639FAA27F00DB11DAA1F649F0A
:1021A0006627B00DA11D661F829F2227B00DA11DBD
:1021B000621F739FB00DA11D621F839FA00D611D43
:1021C000221F749F3327A00D611D231F849F600D64
:1021D000211D822F762F6A2F11249F5750409AF08D
:1021E000F1F088234AF0EE0FFF1FBB1F661F771F19
:1021F000881F91505040A9F79E3F510580F00C94E4
:1022000053100C949E105F3FE4F3983ED4F38695F0
:1022100077956795B795F795E7959F5FC1F7FE2B83
:10222000880F911D9695879597F908950E942F1014
:10223000880B990B0895A1E21A2EAA1BBB1BFD0166
:102240000DC0AA1FBB1FEE1FFF1FA217B307E40795
:10225000F50720F0A21BB30BE40BF50B661F771FED
:10226000881F991F1A9469F76095709580959095CD
:102270009B01AC01BD01CF010895EE0FFF1F881F28
:0E2280008BBF0790F691E02D1994F894FFCFD4
:10228E0000001406200000000000EF01C201BA0198
:10229E00A60197019601000000001E02E102A702AE
:1022AE006B028B02600200000000860721042F03E0
:1022BE003003DC0300000000000000002F030903C0
:1022CE000903424E4F303535006E616E00696E6601
:1022DE00006F7666002E004F6F6F70732C206E6F3E
:1022EE0020424E4F303535206465746563746564E5
:1022FE00202E2E2E20436865636B20796F75722019
:10230E00776972696E67206F7220493243204144AB
:04231E004452210004
:00000001FF
